:1000000083167F306200DF3086008312DF306500A8
:1000100008308F000301C7203920C8208F0B0C281F
:1000200090018D011730840004308F005C2003198B
:100030002228803A031D10287020CF206D204430E4
:100040001D07F6297020CF208D129A031A031C0673
:10005000031DD2281B3084001B081C0692000008D8
:100060003820840A9A0B2F28120939208D17E72887
:1000700092068C0012305820831686138312950145
:1000800086135720083091000C0895060C18861727
:100090000C1C86138C0C5720910B4428151C8613BE
:1000A0001518861757208617831686178312143063
:1000B000FF3E031D58280800861B5C28223058206C
:1000C000083091000310861B03148C0C5720910BF1
:1000D00062282F3058200C0808001A088F0092015F
:1000E0005C208000840A92068F0B70280800B220E2
:1000F000130A8820A020BA200C080800B220130A96
:10010000882814078900B2201308FE3988200908BE
:100110008C00C320083091009920910B8C28831605
:1001200006168312861681080314061E0310861213
:1001300008008C0D03180616031C06128616C0282C
:1001400083160616831208309100AA20910BA52869
:100150000314C3288616AC280314061E0310861247
:100160008C0D0800C3200616B5288616B72806127F
:10017000B928C128C3200612BD288616BF28061636
:10018000C12886120800831606128312080089000F
:100190008316081483120808890A8C000800572067
:1001A000170839281C08023E900061303728CF20FC
:1001B00070209A0BD828E330DE28E2309E00E2302F
:1001C0009D0059309B0003309C00023E9000193086
:1001D000582061308D1B2F3E3920100839201028FF
:1001E00084003622C6003622C7003622C8003622D6
:1001F000C9003622CA003622CB003622CC00362275
:10020000CD00080003301C06031DDD28A2309D0030
:1002100002309E0005309F000130A00005309C0098
:10022000023E9000E7289C0319298D1608301E29EC
:1002300000002E301E290E301E2918308E0003308B
:100240001C06031DDD280E08C7209C009A00023EF4
:1002500090001D308400C8208000840A9A0B2B294E
:10026000E7281E3084001C089000FE3E8F009C0092
:100270005521E7281F089E0029089F000D103922EC
:10028000E72118300D223E30F020E72110300D22FA
:100290003630F020E72108300D222E30F020E72103
:1002A00003010D2259309B000629013091000008FE
:1002B0008C00110884020C088000110A84078F0B3F
:1002C0005729080039220D142630F020E7211E306E
:1002D00025222E30F020E7212630252259309B00A0
:1002E00012309C00023E9000D2309D00E72884210D
:1002F0009A000B308E001A0D970D980D990D9A0DDE
:100300008E0B7B291708080092019D070318920A9B
:100310001C080D1C033A8C000D1C92290C0881202E
:1003200077209B298D199829E0300C07F6219B290D
:1003300080300C07F6219D070318920A9C0A1D08BD
:100340000F391B07F5210F3991001D0E0F391B07BF
:10035000F521F039110408009C0104308F00B5210B
:10036000C6218F0BAF2908009C024908D6214808F6
:10037000DC214708E02146087721CD061808CC0685
:100380001908CB061A08CA0608009C024D08D62197
:100390004C08DC214B08E0214A087721C9061808DF
:1003A000C8061908C7061A08C60608009D019B0161
:1003B000842197001030E329842198002030E3291C
:1003C0008421990030309B0012089D000800AC2168
:1003D000EA21EA2124309C0004308F000830B42147
:1003E0000830C5218F0BEE290800A03E0A148A149C
:1003F0000A11820003301C06031DDD2822309C00F8
:100400008F002430900072309D001E308400043034
:100410008000840A8F0B082AE72881204D08882055
:100420004C0888204B0888204A08882049088820E2
:10043000480888204708882046088820BA2032309B
:100440008E0058208E0B212A080084004D0835228A
:100450004C0835224B0835224A08352249083522F6
:100460004808352247083522460880000008840ADB
:1004700008001E0D3E399400140E940003399300B9
:10048000E03094053B301F06031D131550309307D1
:10049000930D0800000000000000000000000000B4
:1004A000000000000000000000000000000000004C
:1004B000000000000000000000000000000000003C
:1004C000000000000000000000000000000000002C
:1004D000000000000000000000000000000000001C
:1007000000000000000000000000702906291529E3
:10071000312906290629062906291D29DB28DB2877
:10072000DB28DB28DB28DB28DB2862293A2906299D
:100730001B290629DB28DB280629FA290229132987
:100740004D34B2342834E434F6340F348B34D1349D
:100750003A34C93493347E345534A0346C3417346D
:100760002C34C1344A341F347934A234B63468345A
:1007700080345D343334F434DE340734E5349B3470
:10078000A7340D349E34E33460343634F9345A34AB
:100790001134D234C8347534BB344C3424348F34DF
:1007A000EF344134D8341E342634FB34B33484342B
:1007B0003934A7346234CD345C34903405347A341F
:1007C0002934BB3468344F346634233458342034ED
:1007D00010348A345C34F9346F3490347D348D3481
:1007E0003734E9343D34CF3465348A3466340B34DD
:1007F00023347E346B34CA345F340D345234F434D1
:084000000000000000000000B8
:02400E00FA3F77
:104200003B00150011001200CA0007001400CF0087
:104210000600C200840021000500B3000300620014
:10422000FF0000000000000000000000000000008F
:1042300015008200020004001400540052004900DE
:1042400043004F004C004F00520020005400560025
:104250000000FF00FF00FF00FF00FF000A00520007
:10426000500090006A000000FF0090006A0080008B
:10427000000000000000000000000000000000003E
:00000001FF
